:1000000000000420750300005D030000C90C00001F
:1000100061030000630300006503000000000000AE
:100020000000000000000000000000006703000066
:1000300069030000000000006B0300006D03000076
:10004000911E00006F030000A11E00006F0300005E
:100050006F0300006F030000851B00006F030000AA
:100060006F0300006F0300006F0300006F030000C8
:100070006F0300006F0300006F0300006F030000B8
:100080006F030000B50C00006F0300006F03000059
:100090006F0300006F0300006F0300006F03000098
:1000A0006F0300006F0300006F0300006F03000088
:1000B0006F0300006F03000000000000000000005C
:1000C0006F0300006F0300006F0300006F03000068
:1000D0006F0300006F0300006F0300006F03000058
:1000E0006F0300006F0300006F03000000000000BA
:1000F000000000006F030000000000006F0300001C
:1001000000000000000000000000000000000000EF
:1001100000000000000000000000000000000000DF
:1001200000000000000000000000000000000000CF
:1001300000000000000000000000000000000000BF
:1001400000000000000000000000000000000000AF
:10015000000000000000000000000000000000009F
:10016000000000000000000000000000000000008F
:10017000000000000000000000000000000000007F
:10018000000000000000000000000000000000006F
:10019000000000000000000000000000000000005F
:1001A000000000000000000000000000000000004F
:1001B000000000000000000000000000000000003F
:1001C000000000000000000000000000000000002F
:1001D000000000000000000000000000000000001F
:1001E000000000000000000000000000000000000F
:1001F00000000000000000000000000000000000FF
:10020000354936480A1A02D0072291438D463449AF
:1002100034480A1A06D00722914381F30988022242
:1002200082F3148830483149314A00F044F83148AB
:100230003149324A00F03FF831483249324A00F041
:100240003AF832483249334A00F035F832483349F7
:10025000334A00F030F833483349344A00F02BF881
:1002600033483449344A00F026F8344834490022EF
:1002700000F02CF833483449002200F027F83348C6
:100280003349091A082902DB002202604160314A21
:1002900090471F481F49884205D00268043003B4C4
:1002A000904703BCF7E700208646EC46002000217B
:1002B000294A9047FEE7884207D0521A05D00378B2
:1002C00001300B700131013AF9D17047884202D0F8
:1002D00002700130FAE770470000042000E00320BC
:1002E0000000042000000420C8420000000000209C
:1002F00020000020D0030000D00300004837000099
:10030000C8420000000000200000002070370000FC
:100310007037000070370000703700007037000041
:10032000703700007037000070370000C7420000CF
:10033000E8420000200000202000002020000020D3
:10034000A4020020A4020020A4020020A402002095
:10035000A42200209D0300002D2B0000FEE7FEE7F5
:10036000FEE7FEE7FEE7FEE7FEE7FEE7FEE7FEE765
:1003700000F002B8FFF7FCBF0F484FF007018843B9
:1003800085460E4880470E48016841F470010160BF
:10039000BFF34F8FBFF36F8FFFF732BF09480A4992
:1003A0000A4A884207D0521A05D0037801300B70F0
:1003B0000131013AF9D17047000004202D2C0000D2
:1003C00088ED00E0703700000000002000000020F1
:1003D00003F094B903682F2B10B5044604D90749DC
:1003E00040F2CD1000F0AAFC23681F2B83BF03F05E
:1003F0001F03034823604FF0A04010BD703700007A
:1004000000030050032813B5044603D908494720C8
:1004100000F094FC074B01A81B5D0193FFF7DAFF86
:10042000019A01239340C0F8083502B010BD00BF07
:100430009E3700003938000008B50020FFF7E2FFC2
:100440000120FFF7DFFF0220FFF7DCFFBDE80840D7
:100450000320FFF7D7BF0000F7B5C207044612D547
:10046000134E0025032716F8013B019301A8FFF75F
:10047000B1FF019B013503F5E073042D40F82370B3
:10048000F1D1FFF7D9FFA30710D50A4D00240C26A0
:1004900015F8013B019301A8FFF79CFF019B013474
:1004A00003F5E073042C40F82360F1D103B0F0BDF4
:1004B000393800003538000082B001238DF807304C
:1004C0009DF80730114B1860596044F201018842D1
:1004D0009A6012D044F20201884206D1DA60DA68EA
:1004E00012889A61DA685268DA6172B69DF807304C
:1004F000002BFBD162B602B070471A611A6992688C
:100500005A611A6912689A611A69ECE720000020A2
:1005100000B583B002900091019244F2010071464F
:100520006A4600F003F803B000BD000072B6044B49
:10053000D3F8F030DB0700D500BEFFF7BDBF00BF2A
:1005400000ED00E010B5D0E90243D1E90202A0427B
:1005500072EB03032CBF0120002010BD08B50A4830
:1005600000F093FB094AD2E90031C018084BD3E9E7
:10057000002341F10001904271EB030303D210F11B
:10058000807041F1000108BD0000002048000020FB
:10059000C000002037B505460C460A4801A900F006
:1005A000EDFB60B10570446001A9064800F010FC45
:1005B00018B1054800F06EFB002003B030BD0420E8
:1005C000FBE700BFAC0000200000002038B5436905
:1005D00004461BB91849A22000F0B0FB174B1B784A
:1005E00013B90025284638BD237F03F0FF05002BF3
:1005F000F7D0FFF7B3FFD4E90223904271EB030376
:1006000014D3236903B92377D4E9053098472169C6
:100610000029E6D0237F03F0FF05002BE1D0D4E9C9
:1006200002325B1842F10002C4E90232044821465A
:1006300001F076F8D6E700BF3D38000050000020FA
:10064000E838000013B5114B1149186801900823D0
:100650001048582200F07FFB044698B90E4A0F4814
:1006600001A900F0CDF9044660B90C48012100F061
:10067000F9FA01230A4A0948194600F047FA094BDA
:1006800001221A70204602B010BD00BFE2380000FF
:1006900054000020AC00002055070000000000209E
:1006A000FFFF7F005000002070B50C46154606463F
:1006B00020B90A4940F22E2000F040FB35B940F243
:1006C0002F20064900F03AFB072070BD621E3368F8
:1006D000544254415D611C610020F6E73D38000042
:1006E00070B50D461646044620B90D4940F23E202D
:1006F00000F024FB237F83B9A661FFF72FFF236956
:10070000281841F10001C4E9020103B12561214625
:100710000020BDE87040FFF73DBF002070BD00BF66
:100720003D38000010B5044620B906494FF4157055
:1007300000F004FB0023237721460120BDE8104090
:10074000FFF728BF3D380000014800F09EBA00BF07
:10075000000000202DE9F347054600F087FA40B17C
:10076000624AD2E9003113F1807341F10001C2E91C
:1007700000310021284600F083FAB8B15C4C2368B0
:10078000A3B1284600F081FA23689B68C01A20F0C4
:100790007F40B0F5960F04D356494FF4957000F0A2
:1007A000CDFA2068FFF712FF0023236001212846BD
:1007B00000F066FA20B1FFF7D1FE4F4BC3E900010C
:1007C0004E484B4E4E4C4F4F01A900F011FB0028F4
:1007D00042D1DFF82C81464CDFF83091404600F0E2
:1007E000CBFF2368002876D07BB12368D0E9026272
:1007F000D3E902138E4272EB03032AD223681B7FD4
:100800001BB12168404600F08BFF404600F0A4FF7A
:10081000D0E9027A0646FFF7A1FE381A6AEB010A10
:1008200001287AF1000345DBB0F5350F40D3FFF71F
:100830008BFF354A02444FF496030021484600F0EE
:1008400093F9002840D1236813B9284600F042F9F3
:10085000266002B0BDE8F0870378012B1DD0022B83
:1008600009D14FF00008204600F076FF00283AD06A
:1008700080F81C80F7E73BB941680B7F23B901235F
:100880000B77204600F04CFF01A91C4800F0DBFA72
:1008900001A91A4800F0ACFA99E741683368994217
:1008A00002D100233360EFE7204600F071FFEBE751
:1008B000B268C0E70021484600F0DCF93046FFF797
:1008C00085FE0023236089E70D28F7D00949F5202C
:1008D00000F034FAF5E7002BBBD1284602B0BDE8A2
:1008E000F04700F005B901233B70CDE74800002038
:1008F000C80000203D380000C0000020AC000020EF
:10090000E838000050000020FFFFB4000000002085
:1009100072B6024A1368013313607047CC0000209E
:10092000034A1368013B136003B962B6704700BF06
:10093000CC000020EFF30583C3F308032BB9EFF3DA
:100940001480C04300F00100704701207047000090
:1009500008B5FFF7EFFF012803D00449432000F05A
:10096000EDF9BDE80840FFF7D3BF00BFF438000041
:1009700008B5FFF7DFFF012803D00449512000F03C
:10098000DDF9BDE80840FFF7CBBF00BFF438000039
:1009900038B50C46054618B90449B32000F0CEF925
:1009A0002B68C3F84843C3F8084338BD9E3900009C
:1009B00070B50C461646054618B90549A92000F041
:1009C000BDF92B68C3F844430EB1C3F8044370BDAE
:1009D0009E39000037B50C46054618B90749BA20BC
:1009E00000F0ACF92B68185928B100221A511B5994
:1009F0000193019B012003B030BD00BF9E39000070
:100A00002DE9F0410E461546044618B92A495520ED
:100A100000F094F91EB92849562000F08FF91DB94D
:100A20002549572000F08AF96379244A244F42F877
:100A3000235007EBC3031B79002B3BD13588D4F837
:100A40000080B5F5805F04D31E494FF4BE7000F0FE
:100A500075F9C8F80855B67894F90450072E03D9EB
:100A600019496B2000F06AF9002DB8BF174B1849DF
:100A7000A8BF05F160454FEA4616B8BF05F00F055F
:100A8000F6B2AABF05F561455E5585F8006394F995
:100A900004300122580903F01F0302FA03F341F85E
:100AA0002030637907EBC30147F833400A71002017
:100AB000BDE8F0810820FBE79E390000D800002047
:100AC000D00000203F3A00006C3A000014ED00E036
:100AD00000E100E010B5044618B90449872000F091
:100AE0002DF9236801221A6010BD00BF9E39000055
:100AF00010B5044618B904498D2000F01FF9236889
:100B000001225A6010BD00BF9E3900002DE9F3415B
:100B10000C4616461F46804618B91249962000F02A
:100B20000DF904F150018900D8F8002089B24FF482
:100B30008035A5400023C2F80853C2F848535350EB
:100B400004F5A8745358019326F07F46019B42F8A0
:100B50002460C2F844530FB1C2F8045302B0BDE898
:100B6000F08100BF9E3900002DE9F74F0D46144675
:100B70009846074618B93949CD2000F0DFF84FF400
:100B8000803909FA05F949463846FFF701FF3A6806
:100B900005F1500602EB8500B600B6B2D2F8041596
:100BA000D0F84035C0F840154FF0000B42F806B0C1
:100BB0005B1A9259009223F07F43012B009A24F094
:100BC0007F444FEA850A0BD1254B4FF4806043F0F8
:100BD000010398473B6843F806B09B590193019B7A
:100BE0003868D0F80465C0F84493A31B23F07F4312
:100BF000012B1AD11A4B05F5A875013440F8254090
:100C000043F001034FF4806098473B68D3F8043504
:100C10009E4208D1384601224946FFF7C9FE00200E
:100C200003B0BDE8F08F0D20FAE700EB0A03621E67
:100C3000C3F84045D0F80415C8F1FF18521A22F045
:100C40007F4208F57F489045EDD3002AE2D1013478
:100C5000C3F84045D0F804359942DAE79E390000E0
:100C6000A03A00000A460221FFF7A2BE4FF48271AB
:100C7000FFF7B0BE4FF4803303FA01F1FFF788BEEF
:100C80005031890089B2FFF7A5BE0368D3F8040587
:100C90007047000090F9043001215A0903F01F0346
:100CA00001FA03F34032024941F82230704700BF95
:100CB00000E100E0024B034A1B681068184700BFC0
:100CC000D8000020D00000201EF0040F1CBFEFF35E
:100CD00009800AE0EFF308800549064A884201D8F6
:100CE000904202D88D464FF00000034B1847000099
:100CF0000000042000E00320210D0000BFF34F8F0F
:100D00000549064BCA6802F4E0621343CB60BFF3A7
:100D10004F8F00BFFDE700BF00ED00E00400FA05C3
:100D200008B5054B9A6ADA6AD3F8F030DB0700D5CC
:100D300000BEFFF7E3FF08BD00ED00E007B5ADF82A
:100D4000000001916A46002144F20200FFF7EEFB29
:100D500003B05DF804FB10B561B1B2FBF3F403FB23
:100D60001424A4B244B9C0E9001484608281C38110
:100D7000204610BD0E20FCE70920FAE737B550E801
:100D8000013F9DB2C48925448489A54228BF2D1BFB
:100D90000489A54202BFBFF32F8F002207E0C5EAF6
:100DA000030540E80154002CE9D14FF001028DF811
:100DB00003200193019A0A609DF8031001F0FF03DC
:100DC00021B1006810FA82F003B030BD1846FBE78D
:100DD0000A884B889A4209D150E8012FC2EA0242A0
:100DE00040E80123002BF7D1012070470020704715
:100DF00037B550E8023F1FFAA3F5C488A54202BFE9
:100E0000BFF32F8F00220DE0C48925448489A542B9
:100E100028BF2D1BC3EA054540E80254002CE8D149
:100E20004FF001028DF803200193019A0A609DF8AA
:100E3000031001F0FF0321B1006800EB124003B082
:100E400030BD1846FBE70A884B889A4209D150E822
:100E5000022FC2EA224240E80223002BF7D10120F0
:100E600070470020704710B5034653E8000F0A464C
:100E700043E8002494F0000FF7D110BD0268136816
:100E80005268934291BFD01A80680130801888BFA1
:100E9000C01A704738B50C46054618B90449832076
:100EA000FFF74CFFAB68A3428CBF601C002038BD2D
:100EB000A63A0000F8B51546026817681668526829
:100EC000964284BF82680132961B0B46C268416815
:100ED000B542044607FB02110BD86A43184602F0DC
:100EE000B1F8A3683D449D4288BF002523681D607A
:100EF000F8BD06FB02F73A46184602F0A3F8E2688E
:100F00006168AD1B6A43384402F09CF8EEE70000CC
:100F100070B50E461446054620B90F494FF4FB70D4
:100F2000FFF70CFF26B90C4940F2F710FFF706FF58
:100F300084B10020FFF70CFD2846FFF79FFF844295
:100F400028BF0446224628463146FFF7B3FF00205B
:100F5000FFF70EFD204670BDA63A000010B504460E
:100F600020B908494FF40470FFF7E8FE0020FFF7AE
:100F7000EFFC23680020186058609860BDE81040BE
:100F8000FFF7F6BCA63A000010B5044620B90849A0
:100F900040F21E20FFF7D2FE0020FFF7D9FC2046CA
:100FA000FFF76CFF04460020FFF7E2FC204610BD6F
:100FB000A63A000010B5044620B9064940F22B209D
:100FC000FFF7BCFE236818685B68C31A5842584193
:100FD00010BD00BFA63A000038B5044620B9054947
:100FE00040F23320FFF7AAFE2046A568FFF7CCFFAA
:100FF000281A38BDA63A00002DE9F34104461646EA
:101000000191FFF7E9FF236801991A685D685B6841
:10101000AA429CBFA2680132551B8046E268606804
:10102000AE4202FB030017D8724302F00BF82368AC
:10103000A1685A6832448A4296BF5A680026B61898
:101040005E602046FFF71AFF23689A68824238BF25
:10105000986002B0BDE8F08105FB02F73A460191C5
:1010600001F0F0FFE26801996068751B39446A433A
:1010700001F0E8FF2768B0457D60E2D2796820463C
:10108000FFF708FF3860DCE770B50E4614460546EA
:1010900020B913494FF4C570FFF750FE26B9104927
:1010A00040F28B10FFF74AFE84B10020FFF750FC9E
:1010B0002B7C6BB9AB689C4228BF1C462846224655
:1010C0003146FFF799FF0020FFF752FC204670BD24
:1010D0002846FFF781FF844228BF0446EEE700BFA1
:1010E000A63A000043691B68DB6803B118477047E4
:1010F00001230370704700000368012B10B50446FC
:1011000003D004499320FFF719FEBFF35F8F00233C
:10111000236010BD493B000010B4074C0378E35C2A
:1011200023B15DF8044B043001F0D2BB5DF8044BF1
:101130000C3001F0E1B800BF0401002010B4074CEE
:101140000378E35C23B15DF8044B043001F038BC54
:101150005DF8044B0C3001F03DB900BF04010020E4
:10116000F8B50578012D06460C461BD0022D3ED061
:10117000002D3ED14B691B685A689E685768294606
:101180002046FFF7AFFF327A31683846FFF7C0FEDE
:1011900078B3C2B231682046FFF7BEFF48B31549A5
:1011A000B52020E04B69027A1B6841685B681868CB
:1011B000FFF76AFF337A834205D903212046BDE851
:1011C000F840FFF78FBF1BB129462046FFF78AFF83
:1011D00063691B689B6820465A7A5968FFF7AEFF1F
:1011E00038B104499E20BDE8F840FFF7A7BD294665
:1011F000E4E7F8BD803B000008B50121FFF733FEAE
:10120000BFF35F8FB0FA80F0400908BD0378044A4D
:10121000D35C13B1043001F04FBB0C3001F060B867
:10122000040100202DE9F04743691B680546187842
:101230000F46144618BBFF2A28BFFF24DFF84C8056
:101240002646274405F10C092B7818F80330A7EB44
:10125000060A83B1281D01F049FC00B116B9A01B94
:10126000BDE8F087012251462846FFF767FF0028B6
:10127000F5D1013EE8E7484601F046F9EDE75B6845
:10128000BDE8F0471868FFF743BE00BF0401002027
:10129000F8B505464FF47A7000EBC13017460023CD
:1012A0004FF4FA62490C01F09FFD04284FF000044E
:1012B000064603D801233B702046F8BD064A214666
:1012C0002846FFF7F1F90028F7D128683A46314659
:1012D000BDE8F840FFF704BAF110000003681A787F
:1012E00012B11B6903B1184770470000F0B50D46F5
:1012F00089B01646044608B101B11AB93D49C22069
:10130000FFF71CFD63691B68002B70D133783BB17C
:1013100073680BB1B3681BB93649CC20FFF70EFDDB
:101320002B4603F120076D46186859682A4603C208
:101330000833BB421546F7D133780494991E4A42CC
:101340004A41002B8DF81D2069462B4A204608BFD4
:10135000002200F0F3FA054620BB63691E60736843
:1013600043B15868FFF7FAFD63691B685B6818684A
:10137000FFF7F4FD626900239360BFF35F8F62693A
:101380005360BFF35F8F636903221A73009A0132BF
:1013900004BF01221A73019A013206D11A7B22F08E
:1013A00001021A73284609B0F0BD1B681B78022B96
:1013B00009D163691B689B6820465A7A5968FFF710
:1013C000BDFE0546EEE723780C4AD35C53B10C49C9
:1013D00040F25A20FFF7B2FC63691B681B78002BB0
:1013E000E7D1DFE704F10C0001F096F8F4E785257A
:1013F000D8E700BF803B000061110000040100201D
:10140000253C00002DE9F04F0F4685B01546994662
:10141000044620B9544940F24F10FFF78FFC606931
:101420000368002B00F09680027B910740F19480C6
:10143000002D60D007F06042B2F1005F03D01B784E
:10144000022B00F08B800430FFF7D6FE002800F05E
:10145000878000238DF80C300E9B5A1C0ED0A0699B
:1014600003AA1946FFF714FF064638B16069043035
:10147000FFF742FE304605B0BDE8F08FDFF8E8A088
:10148000A84663691A681378002B38D14646FF2EA8
:1014900028BFFF26F2B239462046FFF73DFE18B1BD
:1014A00051466920FFF74AFCB8EB060B374405D0DC
:1014B0006069FFF713FF9DF80C30F3B1B9F1000F2D
:1014C00004D03544A5EB0805C9F800509DF80C3050
:1014D00033B90E9B013303D0A3691868FFF722F9D3
:1014E00060690430FFF708FEBBF1000F03D09DF8E0
:1014F0000C30002B36D10026BCE7D846C1E7536834
:10150000D2F808B05B680193424639461846FFF7A7
:10151000BBFD06462046FFF779FE0028C4D1019B9B
:101520009BF80820DBF800101846FFF7F1FC024694
:1015300028B9019051467820FFF700FC019ADBF8AA
:101540000010D2B22046FFF7E7FD0028ACD051468C
:101550007A20A7E780268DE708268BE7102689E703
:10156000112687E70D2685E7803B00002DE9F74F20
:10157000DDF83080894616461F46044620B93649B4
:101580004FF4D370FFF7DAFB60690368002B5BD080
:10159000037BDB075AD5002E3BD00830FFF72CFE2B
:1015A000002855D00023B8F1FF3F8DF8043032D128
:1015B000B34649465A462046FFF734FEBBEB0005CA
:1015C000824681440ED09DF804306069002B37D0EC
:1015D00003681B7833B12378204AD35C5BB3201DAA
:1015E00001F08CFA1FB15644A6EB0B063E609DF845
:1015F000043033B9B8F1FF3F03D0E3691868FFF74F
:1016000091F860690830FFF777FD15B19DF8043057
:1016100003BB00250BE0E06901AA4146FFF738FE55
:1016200005460028C4D060690830FFF765FD2846EC
:1016300003B0BDE8F08F04F10C0000F083FFD1E7A8
:10164000FFF74CFEAB46B4E78025F0E70825EEE750
:101650001125ECE70D25EAE7803B0000040100209E
:1016600073B50E46044620B92C4940F2FD10FFF731
:1016700065FB60690368002B49D0027B920748D55F
:101680001B781BB90025284602B070BD0430FFF757
:10169000B3FD00283FD000238DF80430731C0BD01D
:1016A000A06901AA3146FFF7F3FD054620B1606944
:1016B0000430FFF721FDE6E763691B685B68586843
:1016C000FFF778FC054640B96069FFF707FE9DF813
:1016D0000430002BF0D0002504E02046FFF796FDF3
:1016E0000028F1D19DF804302BB9013603D0A3694D
:1016F0001868FFF717F860690430FFF7FDFC002D4C
:10170000C0D19DF80430002BBCD00D25BBE780254F
:10171000B9E70825B7E71125B5E700BF803B000012
:1017200070B50C46064618B90A493A20FFF706FB81
:101730001CB908493B20FFF701FB7568286818B100
:10174000B3682146984718B92B6823602C6070BD98
:101750002D68F3E75E3C000010B5044618B9054952
:101760005120FFF7EBFA6368186808B102681A6045
:1017700010BD00BF5E3C000010B5044618B9034917
:101780005D20FFF7DBFA6368186810BD5E3C00005F
:1017900038B50C46054618B90A496920FFF7CEFA54
:1017A0001CB908496A20FFF7C9FA6B68186820B1AC
:1017B000A04203D102681A60012038BD03460068C8
:1017C000F5E700BF5E3C000038B5074C051E04F18C
:1017D000080318BF1C4623682BB11A6822605B6897
:1017E00028469847F7E738BDE400002020B9054BAC
:1017F00001225A70FFF7E8BF012802D1014A907018
:10180000F8E77047DC00002038B5094C23786BB945
:1018100008486360A3602361E36000F0DBF80546DD
:1018200000F0ECF801232370284638BD8525FBE73E
:10183000DC000020ED17000038B51A4C237805466F
:101840001BB91949E920FFF779FAA37803F0FF00E3
:10185000ABB115B16B68012098470020FFF778F80D
:10186000E36800200133E360FFF782F8E368C3B95F
:10187000BDE838400C4940F20510FFF75FBAFFF7AA
:1018800067F825B1226913463BB92A602561E368F0
:10189000002BE5D100F0D4F8E2E79D42F7D01B68B9
:1018A000F2E738BDDC000020073D000010B5074C12
:1018B00023784BB9064B002808BF184600F040FAC1
:1018C00008B90123237010BD8520FCE7F00000203B
:1018D000AB3D00001FB503788DF8003043680193DD
:1018E00083688DF80830C368054A0393054B684642
:1018F00053F8213052F82110984705B05DF804FBE9
:10190000F4000020FC0000201FB503788DF80030A3
:101910004368019383688DF80830C368054A0393D0
:10192000054B684653F8213052F82110984705B00E
:101930005DF804FBF4000020FC0000202DE9F041DC
:101940001E4B90F8008043F828201D4B1646B8F136
:10195000010F0A6943F8282088B007460C4605D1D4
:101960004B7F1BB917497620FFF7E8F9DFF860C015
:10197000637F0CF808300FCC6D460FC594E80F005C
:1019800085E80F003B78CDF810801CF8033053B188
:10199000002E0D4A694608BF3246381D00F096FEFB
:1019A00008B0BDE8F081002E084A694608BF3246FB
:1019B00007F10C0000F0ACFBF2E700BFFC000020D8
:1019C000F4000020AC3D0000D5180000091900000B
:1019D0000401002010B5044618B90649A420FFF7F9
:1019E000ADF9054A107918B901211460918010BD34
:1019F0008520FCE74F3E00000801002008B50C4B95
:101A00001B791BB90B49BD20FFF798F90A4B1A68DF
:101A1000D2075FBFC02283F8002301221A604FF073
:101A200080420123C2F81835044A137008BD00BF74
:101A3000080100204F3E000000E100E010010020FE
:101A40000C4B1B7907B51BB90B49EA20FFF776F958
:101A50004FF080430022C3F80421D3F804210192FF
:101A6000019A0222C3F8042301229A6003B05DF8B0
:101A700004FB00BF080100204F3E00004FF08043F0
:101A800007B5D3F800217AB10022C3F80021D3F8BA
:101A900000210092009A0122C3F808230F4B5879C5
:101AA00010B95A711B6898474FF08043D3F804214E
:101AB00082B10022C3F80421D3F804210192019AD3
:101AC0000222C3F80823054B1B68012003B05DF810
:101AD00004EB184703B05DF804FB00BF08010020C9
:101AE00000F1804000F5C040002382B0036003682D
:101AF0000193019B02B07047C208012300F0070068
:101B000003FA00F08B5C18438854704703682F2B4E
:101B100010B5044604D9074940F2CD10FFF70EF97D
:101B200023681F2B83BF03F01F03034823604FF07C
:101B3000A04010BD703700000003005013B50190A5
:101B400001A80C46FFF7E2FF019B00EB8300D0F8F1
:101B5000003723F44033C0F80037D0F8003743EAA9
:101B60000443C0F8003702B010BD00004FF0A0439E
:101B7000D3F810350360024BD3F81035436070473B
:101B8000000300502DE9F04F00248BB0CDE9024452
:101B9000604D4FF48072012102F1804303F5C04390
:101BA00090B21B68012B06D1D5F804330B4202D04A
:101BB000FFF796FF0C430432B2F5907F4FEA4101E4
:101BC000EAD1544BD3F87C31012B08D14FF4BE70CD
:101BD000FFF786FF02A844F00044FFF7C7FFE3B217
:101BE000D3B14D4F01260025344210D0AB0003F194
:101BF000804303F5C043D3F81005D3F8101557F808
:101C0000253023B1C1F30141C0F3052098470135C8
:101C1000082D4FEA4606E7D1002C78DA0023CDE9FB
:101C200004334FF0FF33CDE90633DFF8ECA03B4B34
:101C3000019300252F46019B13F9014B0193631C6F
:101C40004FD0C4F3C2060122E3B204F03F0B04F00C
:101C5000070402FA04F406F128020DEB020616F856
:101C6000101C21423DD00AEB0B014FEA931991F968
:101C700030105AF82180B8F1000F07D1B9F1030FE5
:101C80002FD104A95846FFF737FF02E0B9F1030F3F
:101C9000F7D008A8CDF820B0FFF738FF089901F574
:101CA000E07150F8211016F8200C2042C1F30141D8
:101CB00006D0022915D1B9F1030F0CD1494605E030
:101CC00003290ED1B9F1030F05D102215846FFF7C0
:101CD00035FF0135EDB2B8F1000F02D04946584644
:101CE000C0470137042FA6D18DB108A8FFF73EFFEA
:101CF000029B089A9A42099B02D103998B4206D013
:101D000002920393049A059B069207938FE70BB008
:101D1000BDE8F08F00600040140100207401002035
:101D200000F1804382B01A68002A14BF012000200D
:101D300004D000221A601B680193019B02B0704717
:101D400010B5044618B911497020FEF7F7FF104A84
:101D50001378C3B923784FF08041C3F34003C1F82F
:101D60008035237803F00103C1F87835094B1968F1
:101D7000C9075FBFC02183F8001301211960012347
:101D80001370002010BD8520FCE700BFF13E00006D
:101D90008C01002000E100E04FF0804370B5D3F8E3
:101DA000044366070ED54FF48470FFF7B9FF48B1BE
:101DB000334D2B6823B933494FF48B70FEF7BEFFC8
:101DC0002B689847A5060FD54FF48A70FFF7A8FF38
:101DD00050B12D4D2B6823B92A4940F21F10FEF750
:101DE000ADFF2B680020984760060FD54FF48C702C
:101DF000FFF796FF50B1244D2B6823B921494FF4CA
:101E00009370FEF79BFF2B680120984721060FD5A2
:101E10004FF48E70FFF784FF50B11C4D2B6823B92F
:101E2000184940F22F10FEF789FF2B6800209847D1
:101E3000E2050FD54FF49070FFF772FF50B1134DCC
:101E40002B6823B90F494FF49B70FEF777FF2B687F
:101E500001209847A30511D54FF49270FFF760FF5A
:101E600060B10A4C236823B9064940F23D10FEF7E1
:101E700065FF23680220BDE87040184770BD00BFB1
:101E800080010020F13E0000840100208801002034
:101E900008B5FFF781FFBDE80840FFF7EFBD000080
:101EA00010B5054C23681BB904495120FEF746FFC5
:101EB0002368BDE81040184790010020933F0000C0
:101EC00038B50D4628B90C497720FEF737FF0020BA
:101ED00038BD0A4B9842FAD10020FEF739FD084B75
:101EE0001C7914B901221D601A710020FEF740FD13
:101EF000002CECD01120EBE7933F000000200040C5
:101F0000900100200023435082B043580193019B6D
:101F100002B070470A4610B54FF48E71FFF7F2FF1A
:101F2000136A9168C95C136A01331362C0F81C1507
:101F300010BD024608B500684FF49271FFF7E2FF4A
:101F400010684FF48471FFF7DDFF136801221A60F7
:101F500008BD000003682F2B10B5044604D90749BB
:101F600040F2CD10FEF7EAFE23681F2B83BF03F07B
:101F70001F03034823604FF0A04010BD70370000DE
:101F8000000300508B690A4610B54FF4847123B9E1
:101F9000FFF7B8FFD0F8183510BDFFF7B3FF536A4D
:101FA000D168D0F81805C854536A01335362F3E777
:101FB0001FB501238DF80030044BCDE90110D3E9A2
:101FC00000126846904705B05DF804FB98010020B8
:101FD00030B54D4DD5F804339A0585B051D5D5F8B7
:101FE0002431002B4DD04FF492712846FFF78AFF21
:101FF0004FF40173C5F80833444B93F829200AB90C
:1020000001226A60404902228DF80020D1F8802424
:10201000C1F8802403929A690292DA680192002240
:10202000C3E906226846D3E9001290473648D0F843
:102030001C315BB1354A5169136A99424DD992F806
:102040002830002B49D11146FFF764FF2E48D0F805
:102050004431002B56D04FF4A271FFF753FF2B4BA6
:1020600093F829200AB1012202609A69002A49D016
:10207000586AD96800229A6105B0BDE83040FFF780
:1020800097BFD5F804335B07D0D5D5F80831002BBE
:10209000CCD01E4C1C482146FFF774FF636AA2692E
:1020A0009A42C3D1E369E1684BB1A3612369E3605C
:1020B0000023606AE3616362FFF77AFFB6E794F892
:1020C00029300BB901236B600F4B4FF40172C3F839
:1020D00008230023606AA361EEE70B484FF48E717A
:1020E000FFF710FF5369002BB0D051690291002314
:1020F00091688DF80030019153616846D2E9001370
:102100009847A3E705B030BD0020004098010020AB
:102110002DE9F347054691460C4619B96949AA20AD
:10212000FEF70CFE95F80480674E2C2303FB086332
:1021300093F82A30002B40F0C18064492868FFF7EB
:10214000BFFE0746002840F0BB8023685A1C13D00E
:1021500001A80193FFF7FEFE019A01239340C0F806
:1021600008352368019301A8FFF7F4FE019B03F5EE
:10217000E073032240F823206368581C09D001A8AB
:102180000193FFF7E7FE019B03F5E073002240F89F
:1021900023202B68A269C3F82425217D627D0A4390
:1021A000C3F86C25D4E900020129C3F81425C3F84B
:1021B0000C052AD1A368591C09D001A80193FFF787
:1021C000C9FE019B03F5E073002240F82320E36879
:1021D0005A1C13D001A80193FFF7BCFE019A0123FA
:1021E0009340C0F80835E368019301A8FFF7B2FEF9
:1021F000019B03F5E073032240F82320D4E9022178
:102200002B68C3F80815C3F810252C2303FB08F32B
:10221000F218C2F804902269F250B9F1000F39D0D7
:10222000286894F81C902A4A4FF48E71FFF76AFED2
:1022300028684FF4A271FFF765FE2C68B9F1070F0B
:10224000C4F804234FEA143A44F3073403D921496C
:102250006B20FEF773FD002CACBF04F160431E4BF6
:102260004FEA4919B8BF0AF00F0A5FFA89F9AABF05
:1022700003F5614303F80A9083F800932B6801216A
:1022800043F30732C3F3043301FA03F3520913494A
:1022900041F822302B680422C3F800252C2303FBCD
:1022A00008630022C3E9062283F829205A6101222B
:1022B00083F82A20384602B0BDE8F0870827F9E7FE
:1022C0001127F7E73740000098010020D11F0000D8
:1022D000800002006C3A000014ED00E000E100E034
:1022E0000279044B2C2101FB02335869003818BFD6
:1022F00001207047980100202DE9F84F334F90F8E6
:1023000004802C2303FB0873064693F82A30012B24
:102310008946924604D02E494FF48C70FEF70EFD8C
:10232000B9F1000F04D12A4940F21910FEF706FD59
:10233000BAF1000F04D126494FF48D70FEF7FEFC70
:102340003046FFF7CDFF044600283BD12C2508FB83
:10235000057B4FF48E71CBF814A0CBF80890CBF826
:1023600020008BF828003068FFF7CCFD306801238F
:1023700083605946FFF7CEFDDBF804305D461BBB9A
:102380003068DBF814402B6A9C4211D83368D3F8CC
:102390001C21002AFBD00122DA6000202C2303FB41
:1023A000087700237B61BDE8F88F95F828303BB9AA
:1023B000D0F81C31002BF8D05946FFF7ABFDE2E70F
:1023C0000F20EBE71120EEE72046ECE79801002014
:1023D000374000002DE9F047494C07792C2303FBD7
:1023E0000743064693F82A30012B8846154604D049
:1023F00044494FF4B670FEF7A1FCB8F1000F04D1C8
:10240000404940F26D10FEF799FC25B93D494FF463
:10241000B770FEF793FC2C2303FB07435A6822B1E5
:1024200033684FF40171C3F808132C2303FB0743EF
:10243000986950B1D969002942D022B133684FF46C
:102440000172C3F80423112537E09D61C3F80C80A5
:102450005862D8612C2303FB074393F829301BB93A
:1024600010B93046FFF765FD4FF02C0808FB074A0E
:102470003068DAF80430002B38D14FF4A271D0461E
:10248000FFF740FD3068D0F82491D0F80831D0F83B
:102490004451D3B915B9B9F1000FF3D02C2303FB84
:1024A00007440023A361B9F1000F25D135BB94F88F
:1024B000291033680122B9B11A602846BDE8F087B7
:1024C000C3F81080DD610120C4E7B9F1000FE5D148
:1024D000002DE3D14146FFF755FDDAF82430DAF854
:1024E00018209A42CED8D9E75A60E6E74FF4017334
:1024F000C0F804330025E0E70325DEE70F25DCE71D
:1025000098010020374000000368D3F80801003824
:1025100018BF01207047000070B50379084C2C26C5
:1025200006FB0343054693F829303BB9FFF701FD4D
:102530002B7906FB0344012384F8293070BD00BFCA
:102540009801002003684FF40172C3F808230122A8
:102550005A6070470023435082B043580193019B57
:1025600002B0704703682F2B10B5044604D9074901
:1025700040F2CD10FEF7E2FB23681F2B83BF03F070
:102580001F03034823604FF0A04010BD70370000C8
:10259000000300501FB501238DF80030044BCDE936
:1025A0000110D3E900126846904705B05DF804FBBE
:1025B000C40100207FB5434AD2F82461002E60D0C8
:1025C00010464FF49271FFF7C5FF02238DF80030DB
:1025D000D2F88034C2F880340393D2F83C350293A9
:1025E000394BDA6801920022C3E906226846D3E932
:1025F000001290473348D0F8443173B14FF4A271C0
:10260000FFF7A8FF304B9A693AB10022C3E90622CE
:10261000D968D0F83C05FFF7BDFF2A48D0F8203133
:10262000ABB14FF49071FFF795FF0123C360264BC8
:102630005A6962B1D0F84C150291002299688DF860
:10264000002001915A616846D3E9001290471D4865
:10265000D0F858319BB14FF4AC71FFF77BFF1A4BA8
:102660005A6962B1D0F84C150291002299688DF830
:10267000002001915A616846D3E90012904704B0E6
:1026800070BDD2F81031002BB4D04FF488711046D1
:10269000FFF760FF0C4BD2F83C0599698842A9D13D
:1026A000DC69D96864B1D2F8005225F02005C2F87F
:1026B00000521A699C61DA60DE61FFF76BFF99E7EF
:1026C0009C61FAE700200040C40100202DE9F34797
:1026D000054691460C4619B97049CF20FEF72EFBEE
:1026E00095F804806E4E242303FB086393F8203092
:1026F000002B40F0CE806B492868FFF7E1FB0746CE
:10270000002840F0C88023685A1C13D001A8019308
:10271000FFF728FF019A01239340C0F8083523688A
:10272000019301A8FFF71EFF019B03F5E07303224D
:1027300040F823206368581C09D001A80193FFF7D3
:1027400011FF019B03F5E073002240F823202B6862
:10275000A269C3F82425217D627D0A43C3F86C2554
:10276000D4E900200129C3F80C25C3F814052AD1A7
:10277000A368591C09D001A80193FFF7F3FE019B40
:1027800003F5E073002240F82320E3685A1C13D0BD
:1027900001A80193FFF7E6FE019A01239340C0F8D8
:1027A0000835E368019301A8FFF7DCFE019B03F500
:1027B000E073032240F82320D4E902212B68C3F8F8
:1027C0000815C3F81025242303FB08F3F218C2F8F8
:1027D00004902269F250B9F1000F48D0286894F8AB
:1027E0001C90314A4FF48871FFF7B4FE28684FF40B
:1027F0009071FFF7AFFE28684FF49271FFF7AAFEC1
:1028000028684FF4A271FFF7A5FE28684FF4AC7159
:10281000FFF7A0FE2C68B9F1070FC4F804234FEAB4
:10282000143A44F3073403D920496B20FEF786FAA3
:10283000002CACBF04F160431D4B4FEA4919B8BFEF
:102840000AF00F0A5FFA89F9AABF03F5614303F89A
:102850000A9083F800932B68012143F30732C3F3F6
:10286000043301FA03F35209124941F822302B686C
:102870000822C3F80025242303FB08660023C6E9C9
:1028800006337361012386F82030384602B0BDE874
:10289000F0870827F9E71127F7E700BFD8400000C5
:1028A000C4010020B5250000100342006C3A00006E
:1028B00014ED00E000E100E00279044B242101FB6B
:1028C00002335869003818BF01207047C401002046
:1028D0002DE9F047384F90F80490242303FB097347
:1028E000054693F82030012B8846924604D03349A0
:1028F00040F22D10FEF722FAB8F1000F04D12F4953
:102900004FF49770FEF71AFABAF1000F04D12B4971
:1029100040F22F10FEF712FA2B7913B9BAF5803F67
:1029200004D326494FF49870FEF708FA08F0604384
:10293000B3F1005F39D12846FFF7BEFF04460028F7
:1029400035D1242606FB09762868C6F814A04FF472
:102950009071C6F80880FFF7FDFD4FF4AC71286850
:10296000FFF7F8FD2B687269B168C3F84415C3F826
:10297000482501229A607268DAB9D3F82021D3F889
:1029800058011AB90028F8D00F2007E00028FBD121
:102990000122DA60D3F85821002AFBD0242303FB5C
:1029A000097700237B61BDE8F0871020FBE7112049
:1029B000F9E72046F7E700BFC4010020D840000037
:1029C0002DE9F041474E0479242303FB04630546B7
:1029D00093F82030012B8846174604D042494FF423
:1029E000C070FEF7ABF9B8F1000F04D13E4940F2D8
:1029F0008110FEF7A3F927B93B494FF4C170FEF7E8
:102A00009DF92B7913B9B7F5803F04D3364940F2CD
:102A10008310FEF793F908F06043B3F1005F5FD1D4
:102A2000242303FB0463596821B12B684FF404721B
:102A3000C3F80823242303FB04639A6952B1DA69BB
:102A4000002A3BD021B12B684FF40472C3F8042351
:102A5000112031E09F61C3F80C80DA6128684FF4DF
:102A60008871FFF777FD28684FF4A271FFF772FDB8
:102A70002B68C3F83485C3F8387522BB01221A606D
:102A80002C79242202FB046252681ABBD3F810117D
:102A9000D3F84421D3F82401114302D10028F5D002
:102AA0000A46242303FB04660023984218BF032030
:102AB0009A42B36118BF0F20BDE8F081C3F81080BF
:102AC000DF610122CAE7D3F8002242F02002C3F8F6
:102AD0000022D5E74FF40472C3F804230020EBE78B
:102AE0001020E9E7C4010020D84000000368D3F8B3
:102AF0001001003818BF0120704700000179084A12
:102B00000368242000FB0122D2692AB1D3F80022F5
:102B100022F02002C3F8002201225A60704700BF51
:102B2000C401002020BF40BF20BF7047F0B585B072
:102B3000FEF76AFE18B12E4A6A21FDF7E9FC002073
:102B4000FEF7B4FE18B12A4A6C21FDF7E1FC002023
:102B5000FEF772FEFDF776FD18B1254A7021FDF7EC
:102B6000D7FC0320FDF778FC224A23492348FEF7CF
:102B7000BDFB18B11E4A7621FDF7CAFC204800F0C3
:102B80008AFA4FF0FF33024600931D491B48002389
:102B9000FEF738FC18B1164A7F21FDF7B9FC194E33
:102BA000164D194F304600F01FFA4FF47A73009318
:102BB000012200230DF10F012846FEF7D7FC044641
:102BC00040B1384600F0EEF99DF80F100F4800F0C4
:102BD000E9F9E7E7009003460DF10F0101222846CD
:102BE000FEF710FC21462846FEF73AFDDAE700BF63
:102BF0007A4100005C420000304200007842000050
:102C00000800002018420000214200002942000074
:102C10004FF08053D3F83021082A03BFD3F8340192
:102C2000B0FA80F0400900207047000008B54FF06E
:102C300080430022C3F80C21C3F81021C3F83825C3
:102C40004FF0805203F54043D2F80414C3F8201526
:102C5000D2F80814C3F82415D2F80C14C3F82815B8
:102C6000D2F81014C3F82C15D2F81414C3F8301588
:102C7000D2F81814C3F83415D2F81C14C3F8401550
:102C8000D2F82014C3F84415D2F82414C3F8481518
:102C9000D2F82814C3F84C15D2F82C14C3F85015E8
:102CA000D2F83014C3F85415D2F83414C3F86015B0
:102CB000D2F83814C3F86415D2F83C14C3F8681578
:102CC000D2F84014C3F86C15D2F84424C3F8702528
:102CD000FFF79EFF18B13B4B3B4AC3F88C26FFF72A
:102CE00097FF18B1394BFB22C3F81825FFF790FF67
:102CF00070B14FF080414FF08053D1F8E42ED3F8FB
:102D0000583222F00F0203F00F031343C1F8E43EE0
:102D1000FFF77EFF20B12E4B4FF40072C3F8402620
:102D20004FF08043D3F80024D20744BF6FF0010274
:102D3000C3F80024274AD2F8883043F47003C2F85D
:102D40008830BFF34F8FBFF36F8F4FF01023D3F84E
:102D50000022002A03DBD3F80432002B2EDA1E4BAC
:102D60000122C3F80425D3F80024002AFBD04FF039
:102D700010221221C2F80012D3F80024002AFBD03E
:102D80004FF010231222C3F80422134BD3F800246F
:102D9000002AFBD00022C3F80425D3F80024002A1F
:102DA000FBD0BFF34F8F0B490C4BCA6802F4E062B3
:102DB0001343CB60BFF34F8F00BFFDE7084B094AB9
:102DC0001A6008BD005000404881030000F0004038
:102DD0000090024000ED00E000E001400400FA0530
:102DE0001C0000200090D00353EA020C61D02DE9B2
:102DF000F04BB3FA83F51E0007BFB2FA82F502FA70
:102E000005F403FA05F41646C5F120051EBF22FAA3
:102E100005F73C43203556EA044C4FEA144418BFEA
:102E20000134A3464FF00009C846904271EB030CF1
:102E300039D3094207BFB0FA80F700FA07F6B1FAB2
:102E400081F701FA07F6C7F120071EBF20FA07FC39
:102E500046EA0C062037B6FBFBFC7F1B103F07F051
:102E60001F04C4F120060CFA04F42CFA06F644BF41
:102E700034460026202FA4BF2646002454EA060C20
:102E800008BF012418EB040849EB0609A4FB027CE7
:102E9000C01B06FB02CC04FB03CC71EB0C0190427F
:102EA00071EB030CC5D20B46024649464046BDE8CD
:102EB000F08BB2FBF3F2000038B585680446084693
:102EC00045B122686168531C8B4208BF00208A42CA
:102ED0000AD2A854E26823682AB161688B4202D200
:102EE0002146904723680133236038BD70B54D1EDD
:102EF00022D413681446C6B20EE0D0542368E268A8
:102F00002AB16168994202D9214690472368013D60
:102F100001336A1C23600FD0A26872B1616803F1AB
:102F2000010C8C4514BF304600209942E5D8013D84
:102F300063466A1C2360EFD170BD3046DFE700BFF7
:102F4000C3062BD410F4007F70B514BF30262026A2
:102F50004D1E22D413681446F6B20EE0D0542368F6
:102F6000E2682AB16168994202D9214690472368F4
:102F7000013D01336A1C23600FD0A2687AB16168F9
:102F800003F1010C8C4514BF304600209942E5D86E
:102F9000013D63466A1C2360EFD170BD7047304627
:102FA000DEE700BF0FB410B588B00AAB0D4A53F886
:102FB000041B03936FF000400024CDE90504019148
:102FC000079200F097FB039A019904A800F094F887
:102FD000019000F091FB019808B0BDE8104004B0EA
:102FE000704700BFD103000010B582B0441E00F04E
:102FF00081FB03E0FDF7ECF9431C08D014F8010F46
:1030000000210028F6D101460A20FDF7E1F90190E0
:1030100000F072FB019802B010BD00BF027862B1EF
:1030200069B100EB010C034601E0634503D013F8DE
:10303000011F0029F9D1181A704710467047084639
:10304000704700BF844640EA010313F0030F18D114
:103050008446202A0BD32DE9F007B1E8F807A0E851
:10306000F807A2F12002202AF7D2BDE8F007042ACF
:1030700007D351F8043B40F8043BA2F10402042AB0
:10308000F7D2002A05D011F8013B00F8013B013AC4
:10309000F9D16046704700F1010110F0030F11D023
:1030A00010F8012B002A23D010F0030F0AD010F8DB
:1030B000012B002A1CD010F0030F03D010F8012BB5
:1030C000002A15D02DE970004FF001324FF0803307
:1030D00050F8044BA4EB020525EA04051D4000D17D
:1030E000F6E7A0F1040070BC10F8012B002AFBD118
:1030F000A0EB0100704700002DE9F04F00230C46C3
:10310000036089B014F8011B03920746002900F000
:10311000E582DFF8DC9507E03846FFF7CDFE14F8CE
:10312000011B002900F058812529F5D122460026EF
:1031300012F8010B302800F29E801F280ED9A0F152
:103140002003102B0AD8DFE803F0AC0909A809090D
:1031500009A4090909A0099C09098D002A2840F041
:10316000FC80039B10781D680433002D0393BCBFC3
:103170006D4246F01006A21C2E2800F004810021AA
:10318000742800F092807A2800F08F806C2800F07C
:1031900032814C2800F03581682800F0BE81144649
:1031A000002800F08880A0F12503DAB2532A00F24B
:1031B0002B81532B00F22881DFE813F0EB0126016D
:1031C00026012601260126012601260126012601C7
:1031D00026012601260126012601260126012601B7
:1031E00026012601260126012601260126012601A7
:1031F0002601260126012601260126012601260197
:103200002601260126012601260126012601260186
:103210002601260126012601260126012601260176
:10322000260182002601260126012601260126010B
:103230002601260126012601D601F60026012601D7
:1032400026012601F600260126012601260150024C
:103250004802130226012601ED012601CB012601B9
:103260002601840046F400761446224612F8010B2B
:1032700030287FF662AF5E286FD146F48056144640
:10328000F3E746F010061446EFE746F02006144632
:10329000EBE746F400461446E7E746F0800614469E
:1032A000E3E746F040061446DFE7144614F8010B46
:1032B00000287FF478AF4FF0FF3009B0BDE8F08F01
:1032C00046F4005616F0800A06D043F2780A43F21C
:1032D0005803782818BF9A4616F4807307BF06F47F
:1032E0008042B04626F4007806F48042002A61D17C
:1032F000039A18F0040F02F104060396126800F016
:10330000A08092B2002B65D028F40078583820288D
:1033100000F29D80DFE810F073019B009B009B0092
:103320009B009B009B009B009B009B009B009B00C5
:10333000D4009B009B009B009B00D4009B009B0043
:103340009B009B009B00090173019B009B009B005D
:103350009B00D4009B009B007301A0F13004E3B2FA
:10336000092B4FF000053FF607AF12F8010B05EBF4
:10337000850504EB4505A0F13004E3B2092BF4D92F
:103380002E287FF4FCAE10782A2840F07781039B2A
:1033900050781968941C0433002903932246FFF6E1
:1033A000EFAE46F48076EBE646F4804806F4807390
:1033B0004FF0000A039A18F0040F02F10406039676
:1033C000126830D012B2002A31DA52424FF02D0A80
:1033D000002B99D1012199E73868BB68002B3FF495
:1033E0006CAF7A6882427FF668AF00221A54386860
:1033F00009B0BDE8F08F144646F0010614F8010B41
:10340000CEE646F001061446B54BD3F80080B8F17D
:10341000000F3FF484AE009103A901912B46324680
:103420003946C0477BE618F0080FCCD0D2B218F06E
:10343000200F40F03E8118F0400F18BF4FF0200AD7
:1034400060E718F0080F3FF45DAFD2B25AE74FF0D3
:10345000FF36002321EAE17BA5EB0B05BAF1FF0F54
:10346000A5EB030540F20481CAF307213846023D6B
:10347000FFF722FD5FFA8AF13846FFF71DFD40464F
:103480003A462946FFF75CFD3A4659463020FFF799
:103490002DFD731C0AD001360DF1140A564416F89E
:1034A000011D3846FFF708FDB245F8D118F0100F9E
:1034B0003FF435AE29463A462020FFF717FD2EE6A9
:1034C0001046002A00F0068108F4004C62460023F2
:1034D0008C464FF02C0E114603F0030209B1032A6B
:1034E00014D01E46A9FB0032D20802EB820306F17B
:1034F000200BA0EB4303EB44303309280BF80C3CC2
:1035000006F1010340F2D2801046E5E703F1200204
:103510006A445E1C02F80CECE4E71078682800F0BE
:10352000D480541C46F004063AE61046002A00F007
:10353000D1800DF1140C002302F007023032C008D4
:103540000CF8012B1E46024601330028F4D1C91A9B
:1035500080E716F4807300F0AF8026F4007806F45C
:1035600080424FF0000AC1E6039B013D191D93F80C
:10357000008003913A4629463046FFF7E1FC414678
:103580003846FFF799FCB3461BF0100F3FF4C7AD68
:1035900090E72521C0E5039B524A181D0390D3F8FC
:1035A00000A0BAF1000F08BF9246F205D04626F4FB
:1035B000007B504640F18580FFF730FD0646AD1B8D
:1035C0003A4629465846FFF7BBFC002EDCD018F8D7
:1035D000011B3846FFF770FCAAEB0803F342F6D153
:1035E000D2E7039B1A1D039216F0800F1A6846F467
:1035F00080780CBF4FF0000A4FF0230A08211046D4
:10360000002A67D008F4005C634605AA8C460026B1
:10361000A346194609E0344B000913F80E3002F8AE
:10362000013B06F101030DD01E4600F00F0E0029EC
:10363000F1D12E4C000914F80E3002F8013B06F1CE
:103640000103F1D161465C46C91A03E716F0800F09
:103650000CBF4FF0000A4FF0300A3DE6039B3A687A
:10366000191D03911B6831074CBF1A701A6056E58B
:10367000BAF1000F3FF403AF013DFBE6A0F13004C7
:10368000E3B2092B02F101024FF000013FF689AECF
:1036900012F8010B01EB810104EB4101A0F13004B0
:1036A000E3B2092BF4D946F4807669E56146C91A7C
:1036B000D0E64FF02B0A25E606F48042B0469A4643
:1036C00014E6FFF7E8FC064679E7507846F008066E
:1036D000941C65E513464FF0FF36BBE608467CE6D2
:1036E00098020020C0420000B0420000A04200004A
:1036F000CDCCCCCC704700BF704700BF10B50146A1
:103700000446172000F00AF800280CBF20464FF0AE
:10371000FF3010BD704700BF704700BF70B5044652
:103720000D46074EFFF7F6FF064A356044F0800469
:1037300014601368002BFCD1FFF7EEFF306870BDFA
:08374000A00200209C02002001
:103748003C020020180200202000000001000000B8
:10375800010000000C020020EA0100202000000007
:08376800010000000100000057
:103770002E2E2F2E2E2F2E2E2F2E2E2F2E2E2F2E64
:103780002E2F6D6F64756C65732F6E7266782F685F
:10379000616C2F6E72665F6770696F2E6800433AC6
:1037A0005C55736572735C757365725C4465736BAD
:1037B000746F705C44575333303030204150495C53
:1037C000445753333030305F52656C656173655FC9
:1037D00076312E315C536F6674776172655C445745
:1037E000333030305F4150495C536F75726365739D
:1037F0005C4457333030305F4150495F43305F7233
:1038000065763470305C4150495C6E5246353238D2
:1038100034302D444B5C53444B5C636F6D706F6E62
:10382000656E74735C626F617264735C626F617207
:1038300064732E63000B0C18190D0E0F10433A5CC5
:1038400055736572735C757365725C4465736B74F4
:103850006F705C44575333303030204150495C44E2
:103860005753333030305F52656C656173655F76F6
:10387000312E315C536F6674776172655C445733E7
:103880003030305F4150495C536F75726365735CD3
:103890004457333030305F4150495F43305F726589
:1038A000763470305C4150495C6E52463532383463
:1038B000302D444B5C53444B5C636F6D706F6E6591
:1038C0006E74735C6C69627261726965735C746951
:1038D0006D65725C6170705F74696D6572322E63C4
:1038E0000000010006000000000000004000002071
:1038F00045050000433A5C55736572735C757365EA
:10390000725C4465736B746F705C44575333303032
:1039100030204150495C445753333030305F52655A
:103920006C656173655F76312E315C536F667477B9
:103930006172655C4457333030305F4150495C53AD
:103940006F75726365735C4457333030305F41503C
:10395000495F43305F7265763470305C4150495C3A
:103960006E524635323834302D444B5C53444B5CF8
:10397000636F6D706F6E656E74735C6C696272619B
:10398000726965735C7574696C5C6170705F757485
:10399000696C5F706C6174666F726D2E6300433A80
:1039A0005C55736572735C757365725C4465736BAB
:1039B000746F705C44575333303030204150495C51
:1039C000445753333030305F52656C656173655FC7
:1039D00076312E315C536F6674776172655C445743
:1039E000333030305F4150495C536F75726365739B
:1039F0005C4457333030305F4150495F43305F7231
:103A000065763470305C4150495C6E5246353238D0
:103A100034302D444B5C53444B5C636F6D706F6E60
:103A2000656E74735C6C69627261726965735C74F3
:103A3000696D65725C6472765F7274632E63002ECA
:103A40002E2F2E2E2F2E2E2F2E2E2F2E2E2F2E2E91
:103A50002F6D6F64756C65732F6E7266782F686159
:103A60006C2F6E72665F7274632E68002E2E2F2E7E
:103A70002E2F2E2E2F2E2E2F2E2E2F2E2E2F696EE6
:103A8000746567726174696F6E2F6E7266782F6EDF
:103A90007266785F676C75652E6800000000000034
:103AA0000338FDD87047433A5C55736572735C7593
:103AB0007365725C4465736B746F705C4457533309
:103AC000303030204150495C445753333030305F00
:103AD00052656C656173655F76312E315C536F663C
:103AE00074776172655C4457333030305F415049C0
:103AF0005C536F75726365735C4457333030305F6D
:103B00004150495F43305F7265763470305C41509C
:103B1000495C6E524635323834302D444B5C534448
:103B20004B5C636F6D706F6E656E74735C6C696215
:103B30007261726965735C71756575655C6E7266DC
:103B40005F71756575652E63002E2E2F2E2E2F2E1C
:103B50002E2F2E2E2F2E2E2F2E2E2F636F6D706F49
:103B60006E656E74732F6C69627261726965732F12
:103B70006D757465782F6E72665F6D74782E68004F
:103B8000433A5C55736572735C757365725C44652A
:103B9000736B746F705C4457533330303020415036
:103BA000495C445753333030305F52656C65617304
:103BB000655F76312E315C536F6674776172655C38
:103BC0004457333030305F4150495C536F757263F6
:103BD00065735C4457333030305F4150495F433048
:103BE0005F7265763470305C4150495C6E52463588
:103BF000323834302D444B5C53444B5C636F6D70F2
:103C00006F6E656E74735C6C696272617269657304
:103C10005C73657269616C5C6E72665F7365726914
:103C2000616C2E63002E2E2F2E2E2F2E2E2F2E2E39
:103C30002F2E2E2F2E2E2F696E7465677261746978
:103C40006F6E2F6E7266782F6C65676163792F6E69
:103C500072665F6472765F756172742E6800433AB3
:103C60005C55736572735C757365725C4465736BE8
:103C7000746F705C44575333303030204150495C8E
:103C8000445753333030305F52656C656173655F04
:103C900076312E315C536F6674776172655C445780
:103CA000333030305F4150495C536F7572636573D8
:103CB0005C4457333030305F4150495F43305F726E
:103CC00065763470305C4150495C6E52463532380E
:103CD00034302D444B5C53444B5C636F6D706F6E9E
:103CE000656E74735C6C69627261726965735C7332
:103CF0006F72746C6973745C6E72665F736F7274EA
:103D00006C6973742E6300433A5C55736572735C1F
:103D1000757365725C4465736B746F705C44575364
:103D200033303030204150495C44575333303030C9
:103D30005F52656C656173655F76312E315C536FE0
:103D40006674776172655C4457333030305F415040
:103D5000495C536F75726365735C44573330303020
:103D60005F4150495F43305F7265763470305C412B
:103D700050495C6E524635323834302D444B5C53DA
:103D8000444B5C696E746567726174696F6E5C6EDA
:103D90007266785C6C65676163795C6E72665F649D
:103DA00072765F636C6F636B2E630000433A5C5501
:103DB000736572735C757365725C4465736B746F65
:103DC000705C44575333303030204150495C445785
:103DD00053333030305F52656C656173655F7631A7
:103DE0002E315C536F6674776172655C4457333073
:103DF00030305F4150495C536F75726365735C444A
:103E000057333030305F4150495F43305F726576E1
:103E10003470305C4150495C6E5246353238343033
:103E20002D444B5C53444B5C696E746567726174DE
:103E3000696F6E5C6E7266785C6C65676163795CF5
:103E40006E72665F6472765F756172742E63004392
:103E50003A5C55736572735C757365725C44657327
:103E60006B746F705C44575333303030204150498D
:103E70005C445753333030305F52656C6561736515
:103E80005F76312E315C536F6674776172655C4486
:103E900057333030305F4150495C536F7572636502
:103EA000735C4457333030305F4150495F43305F7B
:103EB0007265763470305C4150495C6E52463532E2
:103EC0003834302D444B5C53444B5C6D6F64756CDF
:103ED00065735C6E7266785C647269766572735C39
:103EE0007372635C6E7266785F636C6F636B2E6374
:103EF00000433A5C55736572735C757365725C441C
:103F000065736B746F705C445753333030302041AD
:103F100050495C445753333030305F52656C6561B3
:103F200073655F76312E315C536F667477617265AD
:103F30005C4457333030305F4150495C536F757289
:103F40006365735C4457333030305F4150495F43A1
:103F5000305F7265763470305C4150495C6E524619
:103F600035323834302D444B5C53444B5C6D6F64B8
:103F7000756C65735C6E7266785C64726976657286
:103F8000735C7372635C6E7266785F706F77657274
:103F90002E6300433A5C55736572735C757365728A
:103FA0005C4465736B746F705C44575333303030CE
:103FB000204150495C445753333030305F52656C78
:103FC000656173655F76312E315C536F667477611E
:103FD00072655C4457333030305F4150495C536FF9
:103FE00075726365735C4457333030305F415049BC
:103FF0005F43305F7265763470305C4150495C6E6F
:10400000524635323834302D444B5C53444B5C6D52
:104010006F64756C65735C6E7266785C64726976E9
:104020006572735C7372635C7072735C6E726678D7
:104030005F7072732E6300433A5C55736572735CF4
:10404000757365725C4465736B746F705C44575331
:1040500033303030204150495C4457533330303096
:104060005F52656C656173655F76312E315C536FAD
:104070006674776172655C4457333030305F41500D
:10408000495C536F75726365735C445733303030ED
:104090005F4150495F43305F7265763470305C41F8
:1040A00050495C6E524635323834302D444B5C53A7
:1040B000444B5C6D6F64756C65735C6E7266785CA6
:1040C000647269766572735C7372635C6E72667833
:1040D0005F756172742E6300433A5C557365727349
:1040E0005C757365725C4465736B746F705C445788
:1040F0005333303030204150495C445753333030D3
:10410000305F52656C656173655F76312E315C534B
:104110006F6674776172655C4457333030305F414D
:1041200050495C536F75726365735C44573330302C
:10413000305F4150495F43305F7265763470305C68
:104140004150495C6E524635323834302D444B5C18
:1041500053444B5C6D6F64756C65735C6E7266780E
:104160005C647269766572735C7372635C6E7266AE
:10417000785F75617274652E6300433A5C557365B0
:1041800072735C757365725C4465736B746F705C9D
:1041900044575333303030204150495C44575333F7
:1041A0003030305F52656C656173655F76312E31FA
:1041B0005C536F6674776172655C4457333030309E
:1041C0005F4150495C536F75726365735C4457334C
:1041D0003030305F4150495F43305F7265763470F4
:1041E000305C4150495C6E524635323834302D4493
:1041F0004B5C53444B5C6578616D706C65735C70AF
:1042000065726970686572616C5C73657269616C16
:104210005C6D61696E2E630073656E642074782036
:104220000073656E64206F6B00633D2025630000A2
:104230001B0000001A00000007000000050000003D
:1042400000000000010000000050270006000000F0
:10425000E9010020E8010020010100000100000048
:10426000704200005042000000000000252B0000BA
:104270005C370000483700000000000000200040CC
:104280000000000000200040000000004802002064
:104290009C42000098420000580200207802002052
:1042A00030313233343536373839616263646566AC
:1042B000303132333435363738394142434445465C
:0742C000286E756C6C2900EB
:1042C800001001401100040048656C6C6F206E728C
:1042D800665F73657269616C210A0D000090D003F6
:040000030000037581
:00000001FF
