:1000000000600020750300005D0300005F03000036
:1000100061030000630300006503000000000000AE
:100020000000000000000000000000006703000066
:1000300069030000000000006B0300006D03000076
:100040006F0300006F030000450800006F0300000D
:100050006F030000000000006F0300006F0300004A
:100060006F0300006F0300006F0300006F030000C8
:100070006F0300006F0300006F0300006F030000B8
:100080006F0300006F0300006F0300006F030000A8
:100090006F0300006F0300006F0300006F03000098
:1000A0006F0300006F03000000000000000000006C
:1000B0006F0300006F03000000000000000000005C
:1000C0000000000000000000000000000000000030
:1000D0000000000000000000000000000000000020
:1000E0000000000000000000000000000000000010
:1000F0000000000000000000000000000000000000
:1001000000000000000000000000000000000000EF
:1001100000000000000000000000000000000000DF
:1001200000000000000000000000000000000000CF
:1001300000000000000000000000000000000000BF
:1001400000000000000000000000000000000000AF
:10015000000000000000000000000000000000009F
:10016000000000000000000000000000000000008F
:10017000000000000000000000000000000000007F
:10018000000000000000000000000000000000006F
:10019000000000000000000000000000000000005F
:1001A000000000000000000000000000000000004F
:1001B000000000000000000000000000000000003F
:1001C000000000000000000000000000000000002F
:1001D000000000000000000000000000000000001F
:1001E000000000000000000000000000000000000F
:1001F00000000000000000000000000000000000FF
:10020000354936480A1A02D0072291438D463449AF
:1002100034480A1A06D00722914381F30988022242
:1002200082F3148830483149314A00F044F83148AB
:100230003149324A00F03FF831483249324A00F041
:100240003AF832483249334A00F035F832483349F7
:10025000334A00F030F833483349344A00F02BF881
:1002600033483449344A00F026F8344834490022EF
:1002700000F02CF833483449002200F027F83348C6
:100280003349091A082902DB002202604160314A21
:1002900090471F481F49884205D00268043003B4C4
:1002A000904703BCF7E700208646EC46002000217B
:1002B000294A9047FEE7884207D0521A05D00378B2
:1002C00001300B700131013AF9D17047884202D0F8
:1002D00002700130FAE770470060002000580020EB
:1002E0000060002000600020881400000000002052
:1002F00018000020BC030000BC0300002414000010
:1003000088140000000000200000002024140000D9
:1003100024140000241400002414000024140000FD
:10032000241400002414000024140000861400008B
:10033000A014000018000020180000201800002061
:10034000AC020020AC020020AC020020AC02002075
:10035000AC0A00208B030000F9110000FEE7FEE765
:10036000FEE7FEE7FEE7FEE7FEE7FEE7FEE7FEE765
:1003700000F002B8FFF7FCBF0B484FF007018843BD
:1003800085460A488047FFF73BBF094809490A4AA2
:10039000884207D0521A05D0037801300B70013122
:1003A000013AF9D17047000000600020951200006A
:0C03B000241400000000002000000020C9
:1003BC00044B1A5C012393404FF0A042C2F80C3559
:1003CC00704700BF24140000044B1A5C01239340B7
:1003DC004FF0A042C2F80835704700BF241400004B
:1003EC0008B50020FFF7F0FF0120FFF7EDFF02201A
:1003FC00FFF7EAFFBDE808400320FFF7E5BF08B5AB
:10040C000020FFF7D5FF0120FFF7D2FF0220FFF7F6
:10041C00CFFFBDE808400320FFF7CABFC20708B5ED
:10042C0001460CD54FF0A0430322C3F83427C3F880
:10043C003827C3F83C27C3F84027FFF7D1FF8B07B9
:10044C000AD54FF0A0430C22C3F82C27C3F8302751
:10045C00C3F86027C3F8642708BD1FB500210390BB
:10046C0001AA44F20100CDE9011100F003F805B036
:10047C005DF804FB72B6094BD3F8F020D20700D517
:10048C0000BEBFF34F8FD968054A01F4E0610A43FF
:10049C00DA60BFF34F8F00BFFDE700BF00ED00E057
:1004AC000400FA0510B5034649B152B1541E14EAC2
:1004BC00020006D1986019609C80D86010BD0E2097
:1004CC00FCE70920FAE710B58468C2688388121B20
:1004DC00934208D3C26813400268D154C3680133F5
:1004EC00C360002010BD0420FCE78268C3689A42F8
:1004FC000AD08268838813400268D35C0B708368CF
:10050C000133836000207047052070470648074A76
:10051C0003780749D35C012213B1043000F0F0BD1D
:10052C000C3000F0AFBB00BF0000002050000020DA
:10053C00400000200648074A03780749D35C012293
:10054C0013B1043000F08EBD0C3000F04BBB00BF7B
:10055C0000000020500000204100002037B5057835
:10056C00012D0DD0022D30D075B91F491F48FFF752
:10057C00BCFF002834D103B0BDE83040FFF7DABF30
:10058C00037A1BB9FFF7C2FF03B030BD4368184CA8
:10059C0019782046FFF797FF80B18DF80050019035
:1005AC00144B68461B689847A168E368A2885B1ADD
:1005BC009A42E7D2104B01221A70E5E7A268E36871
:1005CC009A42F1D08DF80000EAE7C3688DF800502C
:1005DC000193FFF79BFF074B68461B689847D3E7CF
:1005EC0003238DF80030F6E7410000203000002096
:1005FC001C000020180000202C000020F0B51F4625
:10060C00234B89B004461A600D4600293DD08A88D8
:10061C0020480968FFF746FF002834D1AA89A96849
:10062C001D48FFF73FFF00282DD11C4E0FCE6D4605
:10063C000FC596E80F0085E80F0063690693237CCD
:10064C00174A18488DF81C70003B18BF01238DF811
:10065C001430637C002B14BF0E2300238DF815304F
:10066C00E3680293A3680393236801936946636864
:10067C00009300F0A3F830B90B4B187023680133CA
:10068C0001D0FFF743FF09B0F0BD0720FBE700BF27
:10069C00180000201C00002030000020281400004E
:1006AC0069050000000000202C00002070B5084DEA
:1006BC00014608482E78FFF718FF044636B1002390
:1006CC002B70FFF723FF08B1FFF7C7FE204670BD64
:1006DC002C0000201C00002010B501460E48FFF72E
:1006EC00F2FE0446A8B90D480D4A0378D35C63B1F9
:1006FC00043000F0ABFC60B90A490748FFF7F5FE7F
:10070C0038B9BDE81040FFF715BF0C3000F05EFAA9
:10071C00F1E7204610BD00BF300000200000002093
:10072C00500000204100002072B6024A13680133C9
:10073C001360704744000020034A1368013B1360A8
:10074C0003B962B6704700BF44000020FFF7ECBF4E
:10075C00FFF7F2BF1FB503788DF8003043680193A3
:10076C0083688DF80830C368054A0393054B6846C7
:10077C0053F8213052F82110984705B05DF804FB6E
:10078C00480000204C0000201FB503788DF8003085
:10079C004368019383688DF80830C368054A039356
:1007AC00054B684653F8213052F82110984705B094
:1007BC005DF804FB480000204C000020F0B5194BFC
:1007CC0090F800C091F81DE043F82C20164B16460B
:1007DC000A6943F82C20154B03F80CE00C4607462D
:1007EC000FCC89B06D460FC594E80F0085E80F005B
:1007FC00CDF810C0BEF1000F09D0002E0C4A69468E
:10080C0008BF3246381D00F05BFB09B0F0BD002E6E
:10081C00084A694608BF324607F10C0000F01CF983
:10082C00F3E700BF4C0000204800002050000020DF
:10083C006107000095070000014B1B68184700BFBB
:10084C005400002038B50B4B98420C4601D00020C8
:10085C0038BD0020FFF77AFF074B1D7915B901222F
:10086C001C601A710020FFF773FF002DEFD01120D0
:10087C00EEE700BF0020004054000020002343504E
:10088C0082B043580193019B02B070470A4610B5E1
:10089C004FF48E71FFF7F2FF136A9168C95C136A0B
:1008AC0001331362C0F81C1510BD024608B5006870
:1008BC004FF49271FFF7E2FF10684FF48471FFF769
:1008CC00DDFF136801221A6008BD8B690A4610B55A
:1008DC004FF4847123B9FFF7D1FFD0F8183510BD50
:1008EC00FFF7CCFF536AD168D0F81805C854536A87
:1008FC0001335362F3E700001FB501238DF800307C
:10090C00044BCDE90110D3E900126846904705B0BD
:10091C005DF804FB5C00002030B54D4DD5F8043378
:10092C009A0585B051D5D5F82431002B4DD04FF414
:10093C0092712846FFF7A2FF4FF40173C5F80833F4
:10094C00444B93F829200AB901226A6040490222DB
:10095C008DF80020D1F88024C1F8802403929A6984
:10096C000292DA6801920022C3E906226846D3E9B2
:10097C00001290473648D0F81C315BB1354A5169AA
:10098C00136A99424DD992F82830002B49D111465F
:10099C00FFF77CFF2E48D0F84431002B56D04FF493
:1009AC00A271FFF76BFF2B4B93F829200AB10122A0
:1009BC0002609A69002A49D0586AD96800229A6163
:1009CC0005B0BDE83040FFF797BFD5F804335B079F
:1009DC00D0D5D5F80831002BCCD01E4C1C48214664
:1009EC00FFF773FF636AA2699A42C3D1E369E168B6
:1009FC004BB1A3612369E3600023606AE361636226
:100A0C00FFF77AFFB6E794F829300BB901236B6036
:100A1C000F4B4FF40172C3F808230023606AA361E3
:100A2C00EEE70B484FF48E71FFF728FF5369002B4C
:100A3C00B0D051690291002391688DF8003001917A
:100A4C0053616846D2E900139847A3E705B030BD5F
:100A5C00002000405C0000202DE9F843564D90F832
:100A6C0004802C2303FB0853064693F82A300C46CB
:100A7C009146002B40F09B8050490068FFF7E2FE46
:100A8C000746002840F0958022683068511C0BD036
:100A9C004FF0A04101239340C1F8083502F5E073F3
:100AAC004FF0030C41F823C061684B1C1FBF01F5CC
:100ABC00E0734FF0A04C4FF0000E4CF823E0A3690C
:100ACC00C0F8243594F814C0637DBCF1010F4CEAD6
:100ADC000303C0F86C35C0F81415C0F80C251DD1F3
:100AEC00A268531C1FBF02F5E0734FF0A0414FF0FA
:100AFC00000C41F823C0E368591C0BD04FF0A04CFC
:100B0C0001219940CCF8081503F5E0714FF0030E64
:100B1C004CF821E0C0F80835C0F810252C2202FB57
:100B2C0008F2AB18C3F804902369AB50B9F1000F6D
:100B3C002AD04FF48E71247FFFF7A0FE30684FF45B
:100B4C00A271FFF79BFE32681D4BC2F80433130BE6
:100B5C0042F30732002AA8BF02F160404FEA441169
:100B6C00BABF184803F00F0400F56140C9B2B4BF16
:100B7C00015580F8001303F01F03012101FA03F360
:100B8C005209114941F8223033680422C3F8002578
:100B9C002C2303FB08530022C3E9062283F82920E7
:100BAC005A61012283F82A203846BDE8F8830827C9
:100BBC00FAE71127F8E700BF5C00002025090000C8
:100BCC008000020014ED00E000E100E00279044B2B
:100BDC002C2101FB02335869003818BF01207047E3
:100BEC005C0000202DE9F84F064690F804808946F9
:100BFC009246FFF7EBFF044600283CD1204F2C25F2
:100C0C0008FB057B4FF48E71CBF814A0CBF8089041
:100C1C00CBF820008BF828003068FFF72FFE3068E7
:100C2C00012383605946FFF731FEDBF804305D4643
:100C3C001BBB3068DBF814402B6A9C4211D833681C
:100C4C00D3F81C21002AFBD00122DA6000202C23CF
:100C5C0003FB087700237B61BDE8F88F95F82830FB
:100C6C003BB9D0F81C31002BF8D05946FFF70EFEDB
:100C7C00E2E70F20EBE71120EEE72046ECE700BFA0
:100C8C005C0000202DE9F0473A4D07792C2303FB3B
:100C9C00075306465C6824B103684FF40170C3F82F
:100CAC0008032C2303FB0753986950B1D86900281B
:100CBC0041D024B133684FF40172C3F804231124DA
:100CCC0036E09A61D9605862D8612C2303FB075334
:100CDC0093F829301BB910B93046FFF7E6FD4FF0F9
:100CEC002C0808FB075A3068DAF80430002B37D18F
:100CFC004FF4A271D046FFF7C1FD3068D0F82491B3
:100D0C00D0F80831D0F84441CBB914B9B9F1000F7F
:100D1C00F3D02C2303FB07550023AB61B9F1000F73
:100D2C0024D12CBB95F8291033680122B1B11A607B
:100D3C002046BDE8F0871961DA610120C5E7B9F1F9
:100D4C00000FE6D1002CE4D14146FFF7BEFDDAF8E6
:100D5C002430DAF818209A42CFD8DAE75A60E7E75D
:100D6C004FF40173C0F804330024E1E70324DFE7F8
:100D7C000F24DDE75C0000200023435082B0435871
:100D8C000193019B02B070471FB501238DF8003011
:100D9C00044BCDE90110D3E900126846904705B029
:100DAC005DF804FB880000207FB5434AD2F824612B
:100DBC00002E60D010464FF49271FFF7DDFF022336
:100DCC008DF80030D2F88034C2F880340393D2F816
:100DDC003C350293394BDA6801920022C3E90622B2
:100DEC006846D3E9001290473348D0F8443173B1C8
:100DFC004FF4A271FFF7C0FF304B9A693AB1002251
:100E0C00C3E90622D968D0F83C05FFF7BDFF2A4894
:100E1C00D0F82031ABB14FF49071FFF7ADFF012347
:100E2C00C360264B5A6962B1D0F84C15029100226E
:100E3C0099688DF8002001915A616846D3E9001237
:100E4C0090471D48D0F858319BB14FF4AC71FFF767
:100E5C0093FF1A4B5A6962B1D0F84C1502910022DB
:100E6C0099688DF8002001915A616846D3E9001207
:100E7C00904704B070BDD2F81031002BB4D04FF4B1
:100E8C0088711046FFF778FF0C4BD2F83C05996936
:100E9C008842A9D1DC69D96864B1D2F8005225F036
:100EAC002005C2F800521A699C61DA60DE61FFF716
:100EBC006BFF99E79C61FAE7002000408800002056
:100ECC002DE9F8435C4E90F80480242303FB08635F
:100EDC00044693F820300D469146002B40F0A88034
:100EEC0056490068FFF7AEFC0746002840F0A28088
:100EFC002A682068511C0BD04FF0A041012393406D
:100F0C00C1F8083502F5E0734FF0030C41F823C02B
:100F1C0069684B1C1FBF01F5E0734FF0A04C4FF0FC
:100F2C00000E4CF823E0AB69C0F8243595F814C0DA
:100F3C006B7DBCF1010F4CEA0303C0F86C35C0F8B3
:100F4C000C25C0F814151DD1AA68531C1FBF02F53F
:100F5C00E0734FF0A0414FF0000C41F823C0EB6858
:100F6C00591C0BD04FF0A04C01219940CCF808151E
:100F7C0003F5E0714FF0030E4CF821E0C0F8083592
:100F8C00C0F81025242202FB08F2B318C3F8049011
:100F9C002B69B350B9F1000F39D04FF488712A7F07
:100FAC00FFF7EAFE20684FF49071FFF7E5FE20682A
:100FBC004FF49271FFF7E0FE20684FF4A271FFF737
:100FCC00DBFE20684FF4AC71FFF7D6FE23681C499A
:100FDC00C3F80413190B43F30733002BAEBF03F113
:100FEC00604001F00F0517484FEA4212A8BF00F508
:100FFC006140D2B2B4BF425580F8002301F01F010A
:10100C00012202FA01F15B090F4A42F8231023680E
:10101C000822C3F80025242303FB08660023C6E935
:10102C0006337361012386F820303846BDE8F88317
:10103C000827FAE71127F8E788000020B50D000013
:10104C001003420014ED00E000E100E00279044BD3
:10105C00242101FB02335869003818BF0120704766
:10106C008800002001F06043B3F1005F2DE9F047E8
:10107C000646884692463BD190F80490FFF7E6FF6F
:10108C000446002836D11D4F3068242505FB097510
:10109C004FF49071C5F814A0C5F80880FFF76CFEEA
:1010AC004FF4AC713068FFF767FE33686A69A96862
:1010BC00C3F84415C3F8482501229A606A68DAB966
:1010CC00D3F82021D3F858011AB90028F8D00F20F2
:1010DC0007E00028FBD10122DA60D3F85821002A5E
:1010EC00FBD0242303FB097700237B61BDE8F08749
:1010FC001020FBE71120F9E72046F7E788000020D5
:10110C00F8B501F06043B3F1005F04460F465ED1C1
:10111C000379304D242101FB0351496821B100684A
:10112C004FF40476C0F80863242000FB03539E6937
:10113C0056B1D869002839D021B123684FF4047214
:10114C00C3F80423112030E09A61DF60DE6120686F
:10115C004FF48871FFF710FE20684FF4A271FFF76F
:10116C000BFE2368C3F83475C3F8382516BB01226F
:10117C001A602479242202FB045252680ABBD3F869
:10118C001011D3F84421D3F82401114302D10028C3
:10119C00F5D00A46242303FB04550023984218BFBC
:1011AC0003209A42AB6118BF0F20F8BD1F61DA61B2
:1011BC000126CCE7D3F8002242F02002C3F800222B
:1011CC00D7E74FF40472C3F804230020EDE7102096
:1011DC00EBE700BF880000200378022B02D14068A7
:1011EC00FFF73BB9012BFAD0704700002DE9F04115
:1011FC001F4D8AB00120FFF711F90FCD04AC0FC4BD
:10120C0095E803001B4B1C4A00934FF4807384E851
:10121C000300CDE902230193184A0723694604A869
:10122C00FFF7ECF908B1FFF718F9154DDFF854800A
:10123C0045F00105002414F808703846FFF74CFA05
:10124C000028FAD10A264FF47A40A847013EFAD179
:10125C006846FFF72BFA9DF80030BB4200D110B165
:10126C00FFF7CDF8FEE701340F2CE4D1E2E700BF25
:10127C005C140000AC000020AC010020E511000063
:10128C0080140000481400004FF080534FF0804150
:10129C00D3F84422C2F34232C1F83C250022C1F8F3
:1012AC000C21C1F81021C1F83825544AD3F8040494
:1012BC00C2F82005D3F80804C2F82405D3F80C04AE
:1012CC00C2F82805D3F81004C2F82C05D3F814047E
:1012DC00C2F83005D3F81804C2F83405D3F81C044E
:1012EC00C2F84005D3F82004C2F84405D3F824040E
:1012FC00C2F84805D3F82804C2F84C05D3F82C04DE
:10130C00C2F85005D3F83004C2F85405D3F83404AD
:10131C00C2F86005D3F83804C2F86405D3F83C046D
:10132C00C2F86805D3F84004C2F86C05D3F844043D
:10133C00C2F87005D3F83021082A11D1D3F8342122
:10134C0072B92F4AFB20C2F81805D1F8E42ED3F855
:10135C00583222F00F0203F00F031343C1F8E43E9E
:10136C004FF08043D3F80024D20744BF6FF0010242
:10137C00C3F80024D3F8E42E42F00F02C3F8E42E95
:10138C004FF01023D3F80022002A03DBD3F80432E9
:10139C00002B2EDA1B4B0122C3F80425D3F80024B2
:1013AC00002AFBD04FF010221221C2F80012D3F801
:1013BC000024002AFBD04FF010231222C3F8042281
:1013CC00104BD3F80024002AFBD00022C3F80425CC
:1013DC00D3F80024002AFBD0BFF34F8F0A490B4BE4
:1013EC00CA6802F4E0621343CB60BFF34F8F00BFB7
:1013FC00FDE7074B074A1A60704700BF00C000406A
:10140C0000F0004000E0014000ED00E00400FA05AF
:08141C00140000200090D00331
:101424000D0E0F10FFFFFFFFFFFFFFFFFFFFFFFF8A
:10143400FFFFFFFF00000000000000000000D601D5
:10144400060100000D0A4C4F4F504241434B5F547C
:101454004553540D0A0000001A0000001B00000050
:1014640005000000070000000100000000E0D701B3
:101474000000000000000000000000000338FDD858
:021484007047AF
:101488000000000000200040000000000020004094
:08149800000000000090D003E9
:040000030000037581
:00000001FF
