:1000000000000420750300005D0300005F03000092
:1000100061030000630300006503000000000000AE
:100020000000000000000000000000006703000066
:1000300069030000000000006B0300006D03000076
:100040006F0300006F0300006F0300006F030000E8
:100050006F0300006F0300006F0300006F030000D8
:100060001D0600006F0300006F0300006F03000017
:100070006F0300006F0300006F0300006F030000B8
:100080006F0300006F0300006F0300006F030000A8
:100090006F0300006F0300006F0300006F03000098
:1000A0006F0300006F0300006F0300006F03000088
:1000B0006F0300006F03000000000000000000005C
:1000C0006F0300006F0300006F0300006F03000068
:1000D0006F0300006F0300006F0300006F03000058
:1000E0006F0300006F0300006F03000000000000BA
:1000F000000000006F030000000000006F0300001C
:1001000000000000000000000000000000000000EF
:1001100000000000000000000000000000000000DF
:1001200000000000000000000000000000000000CF
:1001300000000000000000000000000000000000BF
:1001400000000000000000000000000000000000AF
:10015000000000000000000000000000000000009F
:10016000000000000000000000000000000000008F
:10017000000000000000000000000000000000007F
:10018000000000000000000000000000000000006F
:10019000000000000000000000000000000000005F
:1001A000000000000000000000000000000000004F
:1001B000000000000000000000000000000000003F
:1001C000000000000000000000000000000000002F
:1001D000000000000000000000000000000000001F
:1001E000000000000000000000000000000000000F
:1001F00000000000000000000000000000000000FF
:10020000354936480A1A02D0072291438D463449AF
:1002100034480A1A06D00722914381F30988022242
:1002200082F3148830483149314A00F044F83148AB
:100230003149324A00F03FF831483249324A00F041
:100240003AF832483249334A00F035F832483349F7
:10025000334A00F030F833483349344A00F02BF881
:1002600033483449344A00F026F8344834490022EF
:1002700000F02CF833483449002200F027F83348C6
:100280003349091A082902DB002202604160314A21
:1002900090471F481F49884205D00268043003B4C4
:1002A000904703BCF7E700208646EC46002000217B
:1002B000294A9047FEE7884207D0521A05D00378B2
:1002C00001300B700131013AF9D17047884202D0F8
:1002D00002700130FAE770470000042000E00320BC
:1002E0000000042000000420D808000000000020C6
:1002F00004000020D0030000D0030000C408000068
:10030000D80800000000002000000020C408000001
:10031000C4080000C4080000C4080000C4080000AD
:10032000C4080000C4080000C4080000D808000089
:10033000DC0800000400002004000020040000206D
:1003400014000020140000201400002014000020DD
:10035000142000209D03000091060000FEE7FEE748
:10036000FEE7FEE7FEE7FEE7FEE7FEE7FEE7FEE765
:1003700000F002B8FFF7FCBF0F484FF007018843B9
:1003800085460E4880470E48016841F470010160BF
:10039000BFF34F8FBFF36F8FFFF732BF09480A4992
:1003A0000A4A884207D0521A05D0037801300B70F0
:1003B0000131013AF9D1704700000420090700001B
:1003C00088ED00E0C40800000000002000000020CC
:1003D000074B1B5C1F2B86BF064903F01F034FF022
:1003E000A041012202FA03F3C1F80835704700BFAB
:1003F000C40800000003005008B50020FFF7E8FF24
:100400000120FFF7E5FF0220FFF7E2FFBDE808400B
:100410000320FFF7DDBF00000A4B185C1F288ABFCE
:10042000094B4FF0A04300F01F00D3F80425012131
:10043000814021EA02000A40C3F80805C3F80C25F0
:10044000704700BFC408000000030050C20710B589
:1004500004460CD54FF0A0430322C3F83427C3F859
:100460003827C3F83C27C3F84027FFF7C5FFA30789
:100470000AD54FF0A0430C22C3F82C27C3F830272D
:10048000C3F86027C3F8642710BD1FB5002103908F
:1004900001AA44F20100CDE9011100F003F805B012
:1004A0005DF804FB72B6094BD3F8F020D20700D5F3
:1004B00000BEBFF34F8FD968054A01F4E0610A43DB
:1004C000DA60BFF34F8F00BFFDE700BF00ED00E033
:1004D0000400FA05F7B506792F4D0C237343EF1886
:1004E0003C7A002C56D1EA504B687B604779036810
:1004F0002246D0B2874244D843F30734C878002C50
:10050000A8BF04F16047C3F30732BABF234F02F01C
:100510000F0C07F561474FEA4010C0B2B4BF07F8AF
:100520000C0087F80003640901201D4F02F01F0230
:1005300000FA02F247F82420D3F804454A7824F060
:10054000030402F003022243C3F80425D3F808454C
:100550008A7824F0030402F003022243C3F808253A
:100560000A78D3F8104502F00F0224F00F010A4375
:10057000C3F810250C2303FB06552872002003B096
:10058000F0BD900000F5A07001321C501858019089
:100590000198AEE70820F2E70400002014ED00E027
:1005A00000E100E0036801221A600279034B0C218C
:1005B00001FB023302221A72704700BF04000020C0
:1005C00037B54FF4803400688C407BB18B0003F565
:1005D000A0730025C550C3580193019BC0F8044384
:1005E00001F5A87140F8212003B030BDC0F80843E0
:1005F000F6E770B4046840F20116D4F800528E4059
:1006000025EA0605C4F80052D4F800522B43C4F87A
:1006100000329DF80C3070BCFFF7D2BF2DE9F341DA
:10062000104C114F114E00254FF48038236883B1D0
:10063000D7F8043308FA05F21A420AD000232360DF
:1006400023680193A4F50040019B80B2D6E90031F4
:1006500098470135042D04F10404E7D102B0BDE848
:10066000F08100BF40810040008000400400002075
:10067000064A1368B0F5A07F03F10101116003D1B0
:1006800003F00300FFF7C8BE704700BF1000002052
:100690001FB50120FFF7DAFE0F4A92E8030002AB14
:1006A00083E803000D4A0E481946FFF713FF08B10F
:1006B000FFF7EBFE0B4B0C49D3F81025084801233C
:1006C000D2B221FA02F200930021FFF792FF044810
:1006D000FFF768FF30BFFDE7C808000071060000A3
:1006E000D00800000080004000127A004FF08053D4
:1006F000D3F83021082A03BFD3F83401B0FA80F0D0
:10070000400900207047000008B54FF080430022E8
:10071000C3F80C21C3F81021C3F838254FF08052DC
:1007200003F54043D2F80414C3F82015D2F8081496
:10073000C3F82415D2F80C14C3F82815D2F81014F5
:10074000C3F82C15D2F81414C3F83015D2F81814C5
:10075000C3F83415D2F81C14C3F84015D2F820148D
:10076000C3F84415D2F82414C3F84815D2F8281455
:10077000C3F84C15D2F82C14C3F85015D2F8301425
:10078000C3F85415D2F83414C3F86015D2F83814ED
:10079000C3F86415D2F83C14C3F86815D2F84014B5
:1007A000C3F86C15D2F84424C3F87025FFF79EFFF8
:1007B00018B13B4B3B4AC3F88C26FFF797FF18B1A3
:1007C000394BFB22C3F81825FFF790FF70B14FF0AB
:1007D00080414FF08053D1F8E42ED3F8583222F004
:1007E0000F0203F00F031343C1F8E43EFFF77EFF4F
:1007F00020B12E4B4FF40072C3F840264FF08043D7
:10080000D3F80024D20744BF6FF00102C3F80024DC
:10081000274AD2F8883043F47003C2F88830BFF317
:100820004F8FBFF36F8F4FF01023D3F80022002AB1
:1008300003DBD3F80432002B2EDA1E4B0122C3F85F
:100840000425D3F80024002AFBD04FF010221221F7
:10085000C2F80012D3F80024002AFBD04FF0102376
:100860001222C3F80422134BD3F80024002AFBD031
:100870000022C3F80425D3F80024002AFBD0BFF3DC
:100880004F8F0B490C4BCA6802F4E0621343CB60F4
:10089000BFF34F8F00BFFDE7084B094A1A6008BD40
:1008A000005000404881030000F0004000900240EA
:1008B00000ED00E000E001400400FA050000002027
:0408C0000090D003D1
:1008C4000D0E0F1000000306000000000080004021
:0408D400000400001C
:0408D8000090D003B9
:040000030000037581
:00000001FF
